:020000040800F2
:1000000000800020C5000008C1000008C1000008F1
:10001000C1000008C1000008C10000080000000085
:10002000000000000000000000000000C100000807
:10003000C100000800000000C1000008C100000865
:10004000C1000008C1000008C1000008C10000088C
:10005000C1000008C1000008C1000008C10000087C
:10006000C1000008C1000008C1000008C10000086C
:10007000C1000008C1000008C1000008C10000085C
:10008000C1000008C1000008C1000008C10000084C
:10009000C1000008C1000008C1000008C10000083C
:1000A000C1000008C1000008C1000008C10000082C
:1000B000C1000008C1000008C1000008C10000081C
:1000C000FEE700BF114A12498A4208B50CD2013935
:1000D000891A104B21F003010431194453F8040B21
:1000E00042F8040B8B42F9D10B4B0C4A93420AD2D3
:1000F000013AD21A22F0030204321A44002143F8D2
:10010000041B9342FBD100F00BF8FEE70000002037
:100110000000002030010008000000200400002042
:10012000024A136801331360FBE700BF00000020A0
:04000005080000C02F
:00000001FF
